:0400000003EF17F003
:10080000002044697374616E63696100256620632A
:0B0810006D00696E66006E616E0000F6
:10081C00000E0001D56F30C0D8F031C0D9F032C015
:10082C00DAF033C0DBF0DBBF20EF04F01EEF04F096
:10083C0034EF04F0010ED56FD8C001F0D9C002F02E
:10084C00DAC003F0DBC004F0BDEC16F001C0D8F048
:10085C0002C0D9F003C0DAF004C0DBF0000E0001D6
:10086C00D76F000ED66F58C0C5F059C0C6F0D55121
:10087C00D8B443EF04F045EF04F059EF04F0D55130
:10088C00D8A44BEF04F04DEF04F053EF04F0000E3E
:10089C00BB6F2B0EBA6F57EF04F0000EBB6F2D0E13
:1008AC00BA6FBAC0D5F0D8C001F0D9C002F0DAC026
:1008BC0003F0DBC004F054EC13F001040210D8A4D4
:1008CC006AEF04F06CEF04F09FEF04F00001D551D7
:1008DC00D8B473EF04F075EF04F07EEF04F0D5C0DC
:1008EC0064F0C507D8A0C607000ED76F010ED66FEF
:1008FC00640ED625016E000ED721026E120E036E09
:10090C00080E046E9DEC16F00001FD0EC527FF0EBF
:10091C00C6232EC014F02FC015F0640E166E000EF8
:10092C00176EC5C018F0C6C019F01EEC15F01EEFFE
:10093C0009F0D8C001F0D9C002F0DAC003F0DBC076
:10094C0004F054EC13F001500210D8A4B0EF04F0F2
:10095C00B2EF04F0E5EF04F00001D551D8B4B9EFD3
:10096C0004F0BBEF04F0C4EF04F0D5C064F0C5078D
:10097C00D8A0C607000ED76F010ED66F640ED62511
:10098C00016E000ED721026E160E036E080E046E59
:10099C009DEC16F00001FD0EC527FF0EC6232EC0E0
:1009AC0014F02FC015F0640E166E000E176EC5C035
:1009BC0018F0C6C019F01EEC15F01EEF09F0000E71
:1009CC000001DC6F000EDD6F800EDE6F3F0EDF6FFF
:1009DC00000EC46F000EC36FD8C001F0D9C002F076
:1009EC00DAC003F0DBC004F0000E056E000E066EDC
:1009FC00000E076E000E086E39EC14F0D8B009EF3B
:100A0C0005F00BEF05F0EAEF05F018EF05F0C7C0A5
:100A1C00DCF0C8C0DDF0C9C0DEF0CAC0DFF00001F8
:100A2C00C34BC42BDCC001F0DDC002F0DEC003F010
:100A3C00DFC004F0000E056E000E066E200E076E71
:100A4C00410E086E7FEC0BF001C0C7F002C0C8F07D
:100A5C0003C0C9F004C0CAF00001C751D85D016ED3
:100A6C00C851D959026EC951DA59036ECA51DB59B2
:100A7C00046E91EC15F004BE4FEF05F0045003101A
:100A8C00021009E1020E015CD8A04FEF05F051EF06
:100A9C0005F00DEF05F0C7C01AF0C8C01BF0C9C0B7
:100AAC001CF0CAC01DF0D8C01EF0D9C01FF0DAC0AF
:100ABC0020F0DBC021F0D2EC12F0D8A068EF05F0EA
:100ACC006AEF05F00DEF05F00001DC51D85D016E09
:100ADC00DD51D959026EDE51DA59036EDF51DB5903
:100AEC00046E91EC15F004BE89EF05F00450031070
:100AFC00021007E1020E015CD8B087EF05F089EF18
:100B0C0005F0D1EF05F0DCC0D8F0DDC0D9F0DEC0C7
:100B1C00DAF0DFC0DBF0EAEF05F0DCC001F0DDC09D
:100B2C0002F0DEC003F0DFC004F0000E056E000E14
:100B3C00066E200E076E410E086E94EC0DF001C08F
:100B4C00DCF002C0DDF003C0DEF004C0DFF0000119
:100B5C00C307D8A0C407DC51D85D016EDD51D9594B
:100B6C00026EDE51DA59036EDF51DB59046E91ECE3
:100B7C0015F004BECFEF05F004500310021007E18E
:100B8C00020E015CD8B0CDEF05F0CFEF05F0D1EF40
:100B9C0005F089EF05F0D8C01AF0D9C01BF0DAC007
:100BAC001CF0DBC01DF0DCC01EF0DDC01FF0DEC091
:100BBC0020F0DFC021F0D2EC12F0D8A0E8EF05F065
:100BCC00EAEF05F093EF05F034C0BDF0BDC0BEF008
:100BDC005BBEF3EF05F0F5EF05F0FBEF05F05AC047
:100BEC00B6F05BC0B7F000EF06F0000E0001B76F77
:100BFC00060EB66FB6C0C1F0B7C0C2F00001C14B53
:100C0C00C22B660EBE19D8A40EEF06F010EF06F03C
:100C1C0030EF06F0C4BF17EF06F015EF06F023EF28
:100C2C0006F0000EDC6F000EDD6F800EDE6F3F0EE7
:100C3C00DF6F000EC46F000EC36F670EBD19D8B402
:100C4C002AEF06F02CEF06F030EF06F0C351C12767
:100C5C00C451C223000ECC6F000ECB6FD8C0CDF0A8
:100C6C00D9C0CEF0DAC0CFF0DBC0D0F0DCC0C7F01A
:100C7C00DDC0C8F0DEC0C9F0DFC0CAF0C1EF06F0BD
:100C8C00CDC001F0CEC002F0CFC003F0D0C004F054
:100C9C00DCC005F0DDC006F0DEC007F0DFC008F0F8
:100CAC0094EC0DF001C01AF002C01BF003C01CF054
:100CBC0004C01DF06CEC10F01AC0D1F01BC0D2F0C7
:100CCC001CC0D3F01DC0D4F0D1C001F0D2C002F0D2
:100CDC00D3C003F0D4C004F04FEC12F001C0BFF04D
:100CEC0002C0C0F0CDC01AF0CEC01BF0CFC01CF0BB
:100CFC00D0C01DF0D1C005F0D2C006F0D3C007F0B3
:100D0C00D4C008F0DCC001F0DDC002F0DEC003F09E
:100D1C00DFC004F07FEC0BF001C01EF002C01FF02E
:100D2C0003C020F004C021F037EC16F01AC0CDF04F
:100D3C001BC0CEF01CC0CFF01DC0D0F0DCC001F049
:100D4C00DDC002F0DEC003F0DFC004F0000E056E63
:100D5C00000E066E200E076E410E086E94EC0DF020
:100D6C0001C0DCF002C0DDF003C0DEF004C0DFF037
:100D7C000001CB4BCC2BC151CB5DCC51800A356ED5
:100D8C00C251800A3558D8A0CEEF06F0D0EF06F04D
:100D9C0046EF06F0DCC001F0DDC002F0DEC003F06F
:100DAC00DFC004F0000E056E000E066EA00E076E7E
:100DBC00400E086E7FEC0BF001C0D1F002C0D2F0F7
:100DCC0003C0D3F004C0D4F0CDC01AF0CEC01BF0D9
:100DDC00CFC01CF0D0C01DF0D1C01EF0D2C01FF08F
:100DEC00D3C020F0D4C021F0D2EC12F0D8B001EF77
:100DFC0007F003EF07F00EEF07F0000E0001D16FC4
:100E0C00000ED26F000ED36F000ED46F37EF07F0C9
:100E1C00CDC001F0CEC002F0CFC003F0D0C004F0C2
:100E2C00D1C005F0D2C006F0D3C007F0D4C008F092
:100E3C0039EC14F0D8A025EF07F027EF07F037EFC7
:100E4C0007F00001BFB12DEF07F02FEF07F037EFE0
:100E5C0007F0000ED16F000ED26F000ED36F000E94
:100E6C00D46FD8C001F0D9C002F0DAC003F0DBC0F7
:100E7C0004F0D1C005F0D2C006F0D3C007F0D4C046
:100E8C0008F01FEC09F001C0CDF002C0CEF003C099
:100E9C00CFF004C0D0F0CDC01AF0CEC01BF0CFC044
:100EAC001CF0D0C01DF0000E056E000E066E200E5C
:100EBC00076E410E086EC7C001F0C8C002F0C9C071
:100ECC0003F0CAC004F07FEC0BF001C01EF002C0AE
:100EDC001FF003C020F004C021F0D2EC12F0D8A017
:100EEC007AEF07F07CEF07F0A5EF07F00001C34B9A
:100EFC00C42BC7C001F0C8C002F0C9C003F0CAC0FF
:100F0C0004F0000E056E000E066E200E076E410EEC
:100F1C00086E7FEC0BF001C0C7F002C0C8F003C034
:100F2C00C9F004C0CAF0660E0001BE19D8A4A1EF26
:100F3C0007F0A3EF07F0A5EF07F0C14BC22BC7C01A
:100F4C00DCF0C8C0DDF0C9C0DEF0CAC0DFF0C3C041
:100F5C00B4F0C4C0B5F0000E0001BC6F000EB96F48
:100F6C00000EB86F000ECC6F000ECB6FA3EF08F025
:100F7C00CDC001F0CEC002F0CFC003F0D0C004F061
:100F8C00DCC005F0DDC006F0DEC007F0DFC008F005
:100F9C0094EC0DF001C01AF002C01BF003C01CF061
:100FAC0004C01DF06CEC10F01AC0D1F01BC0D2F0D4
:100FBC001CC0D3F01DC0D4F0D1C001F0D2C002F0DF
:100FCC00D3C003F0D4C004F04FEC12F002BEFAEF21
:100FDC0007F0025007E10A0E015CD8B0F8EF07F0F9
:100FEC00FAEF07F00AEF08F0D1C001F0D2C002F01E
:100FFC00D3C003F0D4C004F04FEC12F001C0BFF02A
:10100C0002C0C0F00FEF08F0000E0001C06F090E17
:10101C00BF6F0001BC51D8A416EF08F018EF08F010
:10102C0040EF08F0B5BF1FEF08F01DEF08F040EFE0
:10103C0008F0640ED625D96E000ED721DA6E2E0E6E
:10104C00DF6ED64BD72BC507D8A0C607010EBC6FD9
:10105C0040EF08F0640ED625D96E000ED721DA6E5B
:10106C00300EDF6ED64BD72BC507D8A0C607B807F6
:10107C00D8A0B907B851B911D8A447EF08F049EF77
:10108C0008F030EF08F0640ED625D96E000ED7218B
:10109C00DA6EBF51300FDF6ED64BD72BC507D8A0F9
:1010AC00C607CDC01AF0CEC01BF0CFC01CF0D0C00C
:1010BC001DF0D1C005F0D2C006F0D3C007F0D4C0EB
:1010CC0008F0DCC001F0DDC002F0DEC003F0DFC0D0
:1010DC0004F07FEC0BF001C01EF002C01FF003C047
:1010EC0020F004C021F037EC16F01AC0CDF01BC074
:1010FC00CEF01CC0CFF01DC0D0F0DCC001F0DDC0C4
:10110C0002F0DEC003F0DFC004F0000E056E000E2E
:10111C00066E200E076E410E086E94EC0DF001C0A9
:10112C00DCF002C0DDF003C0DEF004C0DFF0000133
:10113C00B407D8A0B507CB4BCC2BC151CB5DCC5150
:10114C00800A356EC251800A3558D8B0B0EF08F01D
:10115C00B2EF08F0C0EF08F0D7BFBEEF08F0D751E0
:10116C0009E14B0ED65DD8A0BEEF08F0C0EF08F039
:10117C00BEEF07F0000ECC6F4F0ECB6F640ECB257D
:10118C00D96E000ECC21DA6E000EDF6E640E356E59
:10119C00000E366ED651355ED751365ACB513524AA
:1011AC00016ECC513620026E640E036E000E046E7E
:1011BC00D6C005F0D7C006F0ECEC15F00001D65106
:1011CC00CB5DD66FD751CC59D76FD551D8A4F1EF91
:1011DC0008F0F4EF08F0010EF5EF08F0000ECB6FFD
:1011EC00CC6BD551D8B4FDEF08F0FFEF08F00AEF47
:1011FC0009F0D607D8A0D707640ED625D96E000EF5
:10120C00D721DA6ED5C0DFFFCB51C55FCC51C65BA1
:10121C002EC014F02FC015F0640ED625166E000EDD
:10122C00D721176EC5C018F0C6C019F01EEC15F00A
:10123C0012000450800B0D6E045004240F6E03AE8C
:10124C002AEF09F02CEF09F02DEF09F00F800F5069
:10125C00D8B433EF09F035EF09F04AEF09F00F2855
:10126C00D8A43BEF09F03DEF09F045EF09F0000E73
:10127C00016E000E026E000E036E000E046E038EE5
:10128C00000E046E52EF09F0000E016E000E026E9D
:10129C00000E036E000E046E0850800B0E6E0D5087
:1012AC000E18D8B45CEF09F05EEF09F05FEF09F0AF
:1012BC000D8C085008240E6E07AE67EF09F069EF2D
:1012CC0009F06AEF09F00E800E50D8B470EF09F0F7
:1012DC0072EF09F087EF09F00E28D8A478EF09F027
:1012EC007AEF09F082EF09F0000E056E000E066E23
:1012FC00000E076E000E086E078E000E086E8FEF44
:10130C0009F0000E056E000E066E000E076E000E44
:10131C00086E0F500E5CD8B096EF09F098EF09F0FC
:10132C00BFEF09F00DAC9DEF09F09FEF09F0A1EFB5
:10133C0009F0800E0D1A0FC010F00EC00FF010C087
:10134C000EF001C010F005C001F010C005F002C095
:10135C0010F006C002F010C006F003C010F007C079
:10136C0003F010C007F004C010F008C004F010C067
:10137C0008F0000E106E0F500EC009F00A6A095EDC
:10138C00000E0A5A0ABED4EF09F00A5009E11A0EEF
:10139C00095CD8A0D4EF09F0D6EF09F00DEF0AF0F4
:1013AC000150021003100410D8A4DFEF09F0E2EF93
:1013BC0009F0010EE3EF09F0000E106E000E016E45
:1013CC00000E026E000E036E000E046E0EC00FF0C7
:1013DC0016EF0AF010A0F5EF09F0F7EF09F0FDEFAA
:1013EC0009F0D89010300109106EFFEF09F0D89079
:1013FC00103201A004EF0AF006EF0AF007EF0AF032
:10140C00108E043404320332023201320F2A0E5091
:10141C000F5CD8A014EF0AF016EF0AF0F0EF09F009
:10142C000DBC1BEF0AF01DEF0AF05DEF0AF00F5038
:10143C00D8A423EF0AF025EF0AF02FEF0AF0000EE4
:10144C00016E000E026E000E036E000E046E7EEF37
:10145C000BF00550012606500222075003220850BB
:10146C00042204A03CEF0AF03EEF0AF0EAEF0AF087
:10147C0010A043EF0AF045EF0AF04BEF0AF0D890BA
:10148C0010300109106E4DEF0AF0D890103201A007
:10149C0052EF0AF054EF0AF055EF0AF0108E0434B4
:1014AC0004320332023201320F2AEAEF0AF00550FD
:1014BC00015C06500258075003580450800A096E0C
:1014CC000850800A0958D8B06EEF0AF070EF0AF095
:1014DC009BEF0AF00150055C096E025006580A6E2B
:1014EC00035007580B6E045008580C6EFF0E09245D
:1014FC00016EFF0E0A20026EFF0E0B20036EFF0E14
:10150C000C20046E800E0D1A106C1050D8A491EFA4
:10151C000AF093EF0AF0A3EF0AF0010E0126000E79
:10152C00022203220422A3EF0AF00550015E0650AA
:10153C00025A0750035A0850045A01500210031063
:10154C000410D8A4ACEF0AF0AEEF0AF0E3EF0AF007
:10155C001050D8A4B4EF0AF0B6EF0AF0E3EF0AF09B
:10156C00000E016E000E026E000E036E000E046E75
:10157C007EEF0BF0D890013602360336043610AEEF
:10158C00CAEF0AF0CCEF0AF0CDEF0AF0018010A000
:10159C00D2EF0AF0D4EF0AF0D8EF0AF0D880103668
:1015AC00DAEF0AF0D89010360F50D8B4E0EF0AF00A
:1015BC00E2EF0AF0E3EF0AF00F0603AEE8EF0AF0F1
:1015CC00EAEF0AF0C0EF0AF0000E0E6E10AEF1EF6B
:1015DC000AF0F3EF0AF00BEF0BF010C009F07F0EDE
:1015EC000916D8B4FCEF0AF0FEEF0AF002EF0BF08C
:1015FC00010E0E6E0BEF0BF001A007EF0BF009EFD5
:10160C000BF00BEF0BF0FEEF0AF00E50D8B411EF0D
:10161C000BF013EF0BF03EEF0BF0010E0126000E5A
:10162C0002220322042204A01EEF0BF020EF0BF089
:10163C003EEF0BF001C009F002C00AF003C00BF042
:10164C0004C00CF00C340C320B320A32093209C0D3
:10165C0001F00AC002F00BC003F00CC004F00F281C
:10166C00D8B43BEF0BF03DEF0BF03EEF0BF00F2A35
:10167C000F28D8B444EF0BF046EF0BF04EEF0BF005
:10168C000F50D8A44CEF0BF04EEF0BF060EF0BF0BB
:10169C00000E016E000E026E000E036E000E046E44
:1016AC000F50D8A45CEF0BF05EEF0BF060EF0BF07B
:1016BC00000E0D6E0FA065EF0BF067EF0BF06AEFED
:1016CC000BF0038E6BEF0BF0039ED8900F30046E73
:1016DC000DAE73EF0BF075EF0BF076EF0BF0048E95
:1016EC0001C001F002C002F003C003F004C004F01A
:1016FC0012000450800B0D6E04500424136E03AEC4
:10170C008AEF0BF08CEF0BF08DEF0BF01380135076
:10171C00D8B493EF0BF095EF0BF0A8EF0BF0132868
:10172C00D8A49BEF0BF09DEF0BF0A5EF0BF0000E88
:10173C00016E000E026E000E036E000E046E038E20
:10174C00B0EF0BF0000E016E000E026E000E036E79
:10175C00000E046E0850800B0D1A08500824126EEF
:10176C0007AEBBEF0BF0BDEF0BF0BEEF0BF0128032
:10177C001250D8B4C4EF0BF0C6EF0BF0D9EF0BF04E
:10178C001228D8A4CCEF0BF0CEEF0BF0D6EF0BF069
:10179C00000E056E000E066E000E076E000E086E33
:1017AC00078EE1EF0BF0000E056E000E066E000EBC
:1017BC00076E000E086E1250D8B4E7EF0BF0E9EF8D
:1017CC000BF0F1EF0BF01350D8A4EFEF0BF0F1EF9F
:1017DC000BF0FBEF0BF0000E016E000E026E000E14
:1017EC00036E000E046E93EF0DF007500102F3CF61
:1017FC0018F0F4CF19F018500E6E0F6A106A116AB7
:10180C001950146E156A166A176A06500202F3CF45
:10181C0018F0F4CF19F018500E26000E0F221022DB
:10182C00112219501426000E1522162217220550CB
:10183C000302F3CF18F0F4CF19F018500E26000E57
:10184C000F221022112219501426000E15221622D6
:10185C00172210C011F00FC010F00EC00FF00E6A5E
:10186C0005500202F3CF18F0F4CF19F018500E26E1
:10187C0019500F22000E1022000E112206500102E8
:10188C00F3CF18F0F4CF19F018500E2619500F2280
:10189C00000E1022000E112210C011F00FC010F01B
:1018AC000EC00FF00E6A05500102F3CF18F0F4CF02
:1018BC0019F018500E2619500F22000E1022000E8F
:1018CC00112207500202F3CF18F0F4CF19F0185080
:1018DC00142619501522000E1622000E172206503F
:1018EC000302F3CF18F0F4CF19F018501426195046
:1018FC001522000E1622000E172207500302F3CFFA
:10190C0018F0F4CF19F01850096E19500A6E0B6AC2
:10191C000C6A0BC00CF00AC00BF009C00AF0096A83
:10192C00095014260A5015220B5016220C5017225F
:10193C000EC009F00FC00AF010C00BF011C00CF073
:10194C00190EAEEF0CF0D8900C320B320A32093271
:10195C00E82EA9EF0CF0095014260A5015220B5052
:10196C0016220C50172210C011F00FC010F00EC030
:10197C000FF00E6A125013C009F00A6A0926000E05
:10198C000A22820E0924186EFF0E0A20196EE4EF4B
:10199C000CF0D890143615361636173611AED9EF22
:1019AC000CF0DBEF0CF0DCEF0CF01480D8900E3662
:1019BC000F36103611361806D8A0190616AEE9EFF8
:1019CC000CF0EBEF0CF0CFEF0CF0000E126E11AE32
:1019DC00F2EF0CF0F4EF0CF018EF0DF0FF0E0E140C
:1019EC00096EFF0E0F140A6EFF0E10140B6E7F0E95
:1019FC0011140C6E09500A100B100C10D8B409EF0E
:101A0C000DF00BEF0DF00FEF0DF0010E126E18EF45
:101A1C000DF014A014EF0DF016EF0DF018EF0DF003
:101A2C000BEF0DF01250D8B41EEF0DF020EF0DF0AF
:101A3C0044EF0DF0010E1426000E1522162217226B
:101A4C0017A02BEF0DF02DEF0DF044EF0DF014C09F
:101A5C0009F015C00AF016C00BF017C00CF00C34CE
:101A6C000C320B320A32093209C014F00AC015F0DC
:101A7C000BC016F00CC017F0184A192A19BE4FEFFC
:101A8C000DF0195008E11828D8A04FEF0DF051EFC8
:101A9C000DF05BEF0DF0000E146E000E156E800E47
:101AAC00166E7F0E176E89EF0DF019BE68EF0DF0F4
:101ABC00195006E11804D8B066EF0DF068EF0DF080
:101ACC0074EF0DF0000E146E000E156E000E166EF7
:101ADC00000E176E000E0D6E89EF0DF018C013F08E
:101AEC00FF0E1416FF0E15167F0E1616000E171687
:101AFC0013A083EF0DF085EF0DF086EF0DF0168E31
:101B0C00D8901330176E0D50171214C001F015C079
:101B1C0002F016C003F017C004F012000450800B42
:101B2C00116E04500424186E03AE9FEF0DF0A1EF5C
:101B3C000DF0A2EF0DF018801850D8B4A8EF0DF0EE
:101B4C00AAEF0DF0BFEF0DF01828D8A4B0EF0DF0F0
:101B5C00B2EF0DF0BAEF0DF0000E016E000E026E3A
:101B6C00000E036E000E046E038E000E046EC7EFA3
:101B7C000DF0000E016E000E026E000E036E000ED4
:101B8C00046E0850800B111A08500824196E07AE09
:101B9C00D2EF0DF0D4EF0DF0D5EF0DF019801950F8
:101BAC00D8B4DBEF0DF0DDEF0DF0F2EF0DF01928EE
:101BBC00D8A4E3EF0DF0E5EF0DF0EDEF0DF0000E16
:101BCC00056E000E066E000E076E000E086E078E78
:101BDC00000E086EFAEF0DF0000E056E000E066E8C
:101BEC00000E076E000E086E055006100710081048
:101BFC00D8A403EF0EF005EF0EF01DEF0EF0000E63
:101C0C00016E000E026E000E036E000E046E800E4E
:101C1C0003127F0E04121150041201C001F002C015
:101C2C0002F003C003F004C004F060EF0FF0185092
:101C3C00D8A423EF0EF025EF0EF02FEF0EF0000ED0
:101C4C00016E000E026E000E036E000E046E60EF4D
:101C5C000FF0195018C009F00A6A095E000E0A5AF2
:101C6C007F0E0924126E000E0A20136E01C00DF0B7
:101C7C0002C00EF003C00FF004C010F0000E016E95
:101C8C00000E026E000E036E000E046E000E146E3B
:101C9C00000E156E000E166E000E176E000E196EED
:101CAC0090EF0EF01950D8B45EEF0EF060EF0EF01E
:101CBC0077EF0EF0D8900D360E360F361036D890D2
:101CCC00013602360336043617AE6FEF0EF071EFA5
:101CDC000EF072EF0EF00180D890143615361636D1
:101CEC00173605500D5C06500E5807500F5808500B
:101CFC001058D8A084EF0EF086EF0EF08FEF0EF098
:101D0C00178C05500D5E06500E5A07500F5A08508E
:101D1C00105A192A190E196496EF0EF098EF0EF05E
:101D2C0058EF0EF00D500E100F101010D8B4A1EF8C
:101D3C000EF0A3EF0EF0BBEF0EF01480BBEF0EF025
:101D4C00D890013602360336043617AEB0EF0EF0DB
:101D5C00B2EF0EF0B3EF0EF00180D89014361536BA
:101D6C00163617361206D8A0130603AEC0EF0EF0C7
:101D7C00C2EF0EF0A6EF0EF0000E196E17AEC9EF03
:101D8C000EF0CBEF0EF0EFEF0EF0FF0E1414096E09
:101D9C00FF0E15140A6EFF0E16140B6E7F0E171421
:101DAC000C6E09500A100B100C10D8B4E0EF0EF0AA
:101DBC00E2EF0EF0E6EF0EF0010E196EEFEF0EF003
:101DCC0001A0EBEF0EF0EDEF0EF0EFEF0EF0E2EF07
:101DDC000EF01950D8B4F5EF0EF0F7EF0EF01BEF34
:101DEC000FF0010E0126000E02220322042204A091
:101DFC0002EF0FF004EF0FF01BEF0FF001C009F032
:101E0C0002C00AF003C00BF004C00CF00C340C320E
:101E1C000B320A32093209C001F00AC002F00BC0C1
:101E2C0003F00CC004F0124A132A13BE26EF0FF075
:101E3C00135008E11228D8A026EF0FF028EF0FF06E
:101E4C0033EF0FF0000E136E1268000E016E000ED1
:101E5C00026E000E036E000E046E13BE40EF0FF008
:101E6C00135006E11204D8B03EEF0FF040EF0FF024
:101E7C004EEF0FF0000E136E000E126E000E016E80
:101E8C00000E026E000E036E000E046E000E116E3C
:101E9C0012C018F018A055EF0FF057EF0FF05AEFD3
:101EAC000FF0038E5BEF0FF0039ED8901830046E8A
:101EBC0011EF0EF0120039C0D9FF3AC0DAFFDECFB5
:101ECC00F6FFDDCFF7FF0800F550250AD8A471EF17
:101EDC000FF073EF0FF057EF10F039C0D9FF3AC085
:101EEC00DAFFDE2A000EDD22000E596E000E586E4F
:101EFC0058C05CF05A685B6839C0D9FF3AC0DAFF49
:101F0C00DECF48F0DDCF49F048C0F6FF49C0F7FFFF
:101F1C000800F5CF47F09FEF0FF0484A492AB8EF79
:101F2C000FF06C0E476EB8EF0FF0000E476EB8EF67
:101F3C000FF047503D6E3E6A3E50000AD8B4A9EFF0
:101F4C000FF09BEF0FF03D504C0AD8B493EF0FF00D
:101F5C002A0AD8B497EF0FF00A0AD8B493EF0FF00F
:101F6C009BEF0FF048C0F6FF49C0F7FF0800F55093
:101F7C00660AD8A4C4EF0FF0C6EF0FF04EEF10F0C6
:101F8C00FCEF0FF03BC0D9FF3CC0DAFFDFCF3DF0D8
:101F9C00040EDE26DFCF3EF0000EDD223DC0D9FF61
:101FAC003EC0DAFFDECF3FF0DECF40F0DECF41F0B7
:101FBC00DECF42F011EF10F03BC0D9FF3CC0DAFF8E
:101FCC00DFCF3DF0040EDE26DFCF3EF0000EDD222B
:101FDC003DC0D9FF3EC0DAFFDECF3FF0DECF40F090
:101FEC00DECF41F0DECF42F011EF10F047503D6EE6
:101FFC003E6A3E50000AD8B406EF10F011EF10F014
:10200C003D504C0AD8B4E2EF0FF0200AD8B4C8EF18
:10201C000FF011EF10F0010E48243D6E000E492018
:10202C003E6E39C0D9FF3AC0DAFF3DC0DEFF3EC07C
:10203C00DDFF38EF10F037C02EF038C02FF03FC066
:10204C0030F040C031F041C032F042C033F048C0F3
:10205C00F6FF49C0F7FF0800F5CF34F00EEC04F0A2
:10206C006BEF10F048C0F6FF49C0F7FF0800F550C1
:10207C003D6E3E6A3E50000AD8B447EF10F04EEF6A
:10208C0010F03D50660AD8B421EF10F04EEF10F06E
:10209C0039C0D9FF3AC0DAFFDE2A000EDD226BEF21
:1020AC0010F039C0D9FF3AC0DAFFDECFF6FFDDCF32
:1020BC00F7FF0800F550046E056A37C006F038C00B
:1020CC0007F08EEC14F04EEF10F0120060C02AF006
:1020DC0061C02BF062C02CF063C02DF01AC02AF046
:1020EC001BC02BF01CC02CF01DC02DF0810E1E6EE1
:1020FC00FF0E1F6E2AC020F02BC021F02CC022F046
:10210C002DC023F0180E90EF10F0D890233222320D
:10211C0021322032E82E8BEF10F020501E24286E36
:10212C00000E1F20296E29BEA5EF10F0295009E1E1
:10213C00170E285CD8A0A5EF10F0A7EF10F0B1EFA8
:10214C0010F01AC01AF01BC01BF01CC01CF01DC0F4
:10215C001DF074EF11F029BEB6EF10F0B8EF10F0CF
:10216C0028EF11F028C01EF0FF0E1F6EFF0E206E20
:10217C007F0E216E000E226E1E66C7EF10F0CFEFA1
:10218C0010F022342232213220321F321E2EC2EFA6
:10219C0010F01FC024F020C025F021C026F022C072
:1021AC0027F024502A141E6E25502B141F6E265017
:1021BC002C14206E27502D14216E1E501F10201031
:1021CC002110D8A4ECEF10F0EEEF10F0F0EF10F0BF
:1021DC00A7EF10F02AC01EF02BC01FF02CC020F06F
:1021EC002DC021F0200E00EF11F0D89021322032BA
:1021FC001F321E32E82EFBEF10F01E501F10201065
:10220C002110D8B40CEF11F00EEF11F016EF11F005
:10221C0024502A2625502B2226502C2227502D22A2
:10222C00241C1E6E251C1F6E261C206E271C216E66
:10223C001E502A161F502B1620502C1621502D16CE
:10224C006CEF11F02AC01EF02BC01FF02CC020F038
:10225C002DC021F0200E38EF11F0D8902132203211
:10226C001F321E32E82E33EF11F01E501F102010BB
:10227C002110D8A444EF11F046EF11F050EF11F0FB
:10228C00000E2A6E000E2B6E000E2C6E000E2D6EA4
:10229C006CEF11F0D8902A341E6E2B341F6E2C3438
:1022AC00206E2D34216E1E501F1020102110D8B41A
:1022BC0062EF11F064EF11F06CEF11F0000E2A6E6A
:1022CC00000E2B6E800E2C6EBF0E2D6E2AC01AF0D7
:1022DC002BC01BF02CC01CF02DC01DF01200096E81
:1022EC000950D8B47CEF11F07EEF11F0A0EF11F093
:1022FC0004BE85EF11F083EF11F0A0EF11F001C0D7
:10230C0005F002C006F003C007F004C008F0051E7B
:10231C00061E071E081E052A000E0622072208228A
:10232C0005C00BF006C00CF007C00DF008C00EF095
:10233C00A8EF11F001C00BF002C00CF003C00DF0BF
:10234C0004C00EF00150021003100410D8A4B1EF19
:10235C0011F0B3EF11F0BDEF11F0000E016E000E95
:10236C00026E000E036E000E046E4EEF12F0960E0F
:10237C000A6EC7EF11F00A2AD8900E320D320C32C9
:10238C000B32000E0B14056E000E0C14066E000EB4
:10239C000D14076EFE0E0E14086E05500610071075
:1023AC000810D8A4DCEF11F0DEEF11F0C1EF11F042
:1023BC00ECEF11F00A2A010E0B26000E0C220D2256
:1023CC000E22D8900E320D320C320B32000E0B1442
:1023DC00056E000E0C14066E000E0D14076EFF0E2B
:1023EC000E14086E0550061007100810D8A401EF43
:1023FC0012F003EF12F0E0EF11F00BEF12F00A06FF
:10240C00D8900B360C360D360E360DBE10EF12F082
:10241C0012EF12F01AEF12F0020E0A6018EF12F01F
:10242C001AEF12F005EF12F00AB01FEF12F021EFC5
:10243C0012F022EF12F00D9ED8900A320AC005F06D
:10244C00066A076A086A05C008F0076A066A056A20
:10245C0005500B1206500C1207500D1208500E129C
:10246C000950D8B43CEF12F03EEF12F046EF12F0E8
:10247C0004BE45EF12F043EF12F046EF12F00E8E51
:10248C000BC001F00CC002F00DC003F00EC004F044
:10249C001200033404340A6E0A50D8A458EF12F018
:1024AC005AEF12F064EF12F0000E016E000E026E85
:1024BC00000E036E000E046ED1EF12F001C005F099
:1024CC0002C006F003C007F004C008F0200E74EF41
:1024DC0012F0D8900832073206320532E82E6FEF30
:1024EC0012F00550096E038EFF0E0116FF0E021638
:1024FC00FF0E0316000E0416960E0A5E0ABE8BEF34
:10250C0012F089EF12F0A1EF12F00A50800A970F27
:10251C00D8B093EF12F095EF12F097EF12F05AEF4C
:10252C0012F0D89004320332023201320A3E97EF95
:10253C0012F0B9EF12F01F0E0A64A7EF12F0A9EF18
:10254C0012F0B1EF12F05AEF12F0D89001360236B9
:10255C00033604360A060A50D8A4B7EF12F0B9EFC6
:10256C0012F0ABEF12F00950D8B4BFEF12F0C1EF7C
:10257C0012F0C9EF12F0041E031E021E016C000EB5
:10258C0002220322042201C001F002C002F003C0A7
:10259C0003F004C004F01200000E1A14226E000E98
:1025AC001B14236E800E1C14246E7F0E1D14256EBE
:1025BC002250231024102510D8A4E7EF12F0E9EFD5
:1025CC0012F0F1EF12F0000E1A6E000E1B6E000EE0
:1025DC001C6E000E1D6E000E1E14226E000E1F14BB
:1025EC00236E800E2014246E7F0E2114256E225033
:1025FC00231024102510D8A406EF13F008EF13F0C5
:10260C0010EF13F0000E1E6E000E1F6E000E206EEB
:10261C00000E216E1DAE15EF13F017EF13F020EF27
:10262C0013F01A6C1B1ED8B01B2A1C1ED8B01C2A07
:10263C00800E1D5621AE25EF13F027EF13F030EF6F
:10264C0013F01E6C1F1ED8B01F2A201ED8B0202AD3
:10265C00800E2156000E1A1A000E1B1A000E1C1AA0
:10266C00800E1D1A000E1E1A000E1F1A000E201AC4
:10267C00800E211A1E501A5C1F501B5820501C58DB
:10268C0021501D58D8B04DEF13F04FEF13F052EF0F
:10269C0013F0D89053EF13F0D880120054C00BF005
:1026AC0055C00CF056C00DF057C00EF001C00BF029
:1026BC0002C00CF003C00DF004C00EF00BC005F00E
:1026CC000CC006F00DC007F00EC008F0180E74EF29
:1026DC0013F0D8900832073206320532E82E6FEF2D
:1026EC0013F00550096E0A6A09500A10D8A481EF3C
:1026FC0013F083EF13F0A3EF13F0D8900B34056EA7
:10270C000C34066E0D34076E0E34086E0550061030
:10271C0007100810D8A495EF13F097EF13F09DEF66
:10272C0013F0000E026E020E016ED2EF13F0000ECB
:10273C00026E030E016ED2EF13F009280A10D8A412
:10274C00AAEF13F0ACEF13F0CEEF13F00BC005F0C3
:10275C000CC006F00DC007F00EC008F0090ED890A2
:10276C000536063607360836E82EB5EF13F0055059
:10277C00061007100810D8B4C6EF13F0C9EF13F009
:10278C00010ECAEF13F0000E016E026AD2EF13F0C5
:10279C00000E026E040E016E1200D9EC14F0020E43
:1027AC004F6E040E4E6EBA0EE82EFED74E2EFCD790
:1027BC004F2EFAD700D0D9EC16F014EC17F01BEC16
:1027CC0017F05BEC15F00FC050F010C051F011C0B9
:1027DC0052F012C053F0010E0001E66F080EE76FC5
:1027EC00EFEC16F0C20E7CEC16F00C0E0001E66F4E
:1027FC00080EE76F50C0E8F051C0E9F052C0EAF0A3
:10280C0053C0EBF0EFEC16F050C01AF051C01BF0B7
:10281C0052C01CF053C01DF0000E1E6E000E1F6E39
:10282C00200E206E410E216ED2EC12F0D8B021EFAA
:10283C0014F023EF14F027EF14F08A908A8229EF1A
:10284C0014F08A808A92030E4F6E080E4E6E770E2D
:10285C00E82EFED74E2EFCD74F2EFAD700F0E7EF1E
:10286C0013F000EF00F0000E0114096E000E0214BC
:10287C000A6E800E03140B6E7F0E04140C6E09503E
:10288C000A100B100C10D8A44EEF14F050EF14F0EB
:10289C0058EF14F0000E016E000E026E000E036E67
:1028AC00000E046E000E0514096E000E06140A6E5E
:1028BC00800E07140B6E7F0E08140C6E09500A1054
:1028CC000B100C10D8A46DEF14F06FEF14F077EF21
:1028DC0014F0000E056E000E066E000E076E000E54
:1028EC00086E055001180FE1065002180CE1075054
:1028FC00031809E108500418D8B487EF14F089EFD5
:10290C0014F08CEF14F0D8908DEF14F0D8801200E6
:10291C0006500710D8B495EF14F097EF14F0A0EF11
:10292C0014F006500710D8A49EEF14F0A0EF14F08A
:10293C00A5EF14F0045014EC16F0D8EF14F020EEC0
:10294C0009F00650D9260750DA22DE50DE10D8B432
:10295C00B2EF14F0B4EF14F0CFEF14F020EE09F056
:10296C000650D9260750DA2210EE03F00650E12665
:10297C000750E222DE50E65CE650800A0C6EDE5018
:10298C00800A0C58D8B0CDEF14F0CFEF14F0D8EF7C
:10299C0014F020EE03F00650D9260750DA22DE2A76
:1029AC00000EDD2212004E0E046EEB0EE82EFED74A
:1029BC00042EFCD700F0020E7CEC16F0030E046E15
:1029CC00980EE82EFED7042EFCD7280E7CEC16F0C1
:1029DC00030E046E980EE82EFED7042EFCD72C0E98
:1029EC007CEC16F0030E046E980EE82EFED7042E27
:1029FC00FCD70C0E7CEC16F0030E046E980EE82E31
:102A0C00FED7042EFCD7060E7CEC16F0030E046EDB
:102A1C00980EE82EFED7042EFCD7800E7CEC16F018
:102A2C00030E046E980EE82EFED7042EFCD712006F
:102A3C0019BE23EF15F025EF15F02BEF15F018C08C
:102A4C001DF019C01EF02FEF15F0000E1E6E000EBB
:102A5C001D6E000E1C6E000E1B6E41EF15F0000E6D
:102A6C00056E200E046E14C006F015C007F08EEC37
:102A7C0014F01B4A1C2A1D501B5C1C50800A1A6E39
:102A8C001E50800A1A58D8A04EEF15F050EF15F0D2
:102A9C0035EF15F016C00DF017C00EF014C00FF086
:102AAC0015C010F05AEC16F012008A84060EE82EAF
:102ABC00FED700D08A94000ED76E000ED66E81A67B
:102ACC006AEF15F06CEF15F065EF15F0000ED76E90
:102ADC00000ED66E81B675EF15F077EF15F070EF2E
:102AEC0015F0D6CF01F0D7CF02F0036A046A000EBE
:102AFC0075EC11F0000E136E000E146E100E156EA8
:102B0C00410E166E13C00FF014C010F015C011F06A
:102B1C0016C012F0120004BEA0EF15F00450031002
:102B2C00021006E10104D8B09EEF15F0A0EF15F0ED
:102B3C00BBEF15F001C005F002C006F003C007F0B2
:102B4C0004C008F0051E061E071E081E052A000EEE
:102B5C0006220722082205C001F006C002F007C0B9
:102B6C0003F008C004F0C3EF15F001C001F002C07F
:102B7C0002F003C003F004C004F01200E2C04AF0FB
:102B8C00E3C04BF0D8EF15F0E0C037F0E1C038F0FF
:102B9C004A0E396E000E3A6EE4C03BF0E5C03CF0D4
:102BAC0061EC0FF04AC0F6FF4BC0F7FF0800F55080
:102BBC000009D8A4E4EF15F0E6EF15F0CAEF15F014
:102BCC00000E0001E16F000EE06F120003C009F06F
:102BDC0004C00AF001C007F002C008F006EF16F0BE
:102BEC0009C0D9FF0AC0DAFFDF500B6E094A0A2A66
:102BFC0007C0D9FF08C0DAFF0BC0DFFF074A082A5D
:102C0C000506D8A00606052806E10628D8A411EF6B
:102C1C0016F013EF16F0F6EF15F01200026E0250DC
:102C2C00F00B036E035005098C6E060EE82EFED7D2
:102C3C0000D0035001098C6E030E016E980EE82E25
:102C4C00FED7012EFCD70238F00B036E035005099A
:102C5C008C6E060EE82EFED700D0035001098C6E48
:102C6C001200000E1E1A000E1F1A000E201A800EE3
:102C7C00211A1AC001F01BC002F01CC003F01DC0C9
:102C8C0004F01EC005F01FC006F020C007F021C0E4
:102C9C0008F01FEC09F001C01AF002C01BF003C0D1
:102CAC001CF004C01DF01200000E136E000E126E0C
:102CBC006BEF16F011C004F0056A0FC006F010C0DF
:102CCC0007F08EEC14F0124A132A12500D24D96E10
:102CDC0013500E20DA6EDF50116E1150D8A479EF1C
:102CEC0016F07BEF16F060EF16F01200026E025039
:102CFC00F00B036E035004098C6E060EE82EFED703
:102D0C0000D003C08CFF030E016E980EE82EFED788
:102D1C00012EFCD70238F00B036E035004098C6EA5
:102D2C00060EE82EFED700D003C08CFF120003C0A5
:102D3C0005F004C006F001C007F002C008F005C0A1
:102D4C00F6FF06C0F7FF054A062A07C0D9FF08C0E0
:102D5C00DAFF074A082A0800F5CFDFFFDF50D8A4B6
:102D6C00BAEF16F0BCEF16F0A5EF16F012000150FA
:102D7C00021003100410D8B4C6EF16F0C8EF16F00A
:102D8C00D0EF16F0000E011A000E021A000E031AF4
:102D9C00800E041A01C001F002C002F003C003F05F
:102DAC0004C004F012000F0EC16E720ED36E880EAA
:102DBC00D56E000ED76E000ED66E939093928A90BD
:102DCC008A92000E956E000E0F015E6F000E5C6F06
:102DDC001200E80E4C6E000E4D6E000E0001E06FFE
:102DEC00000EE16FE6C0E2F0E7C0E3F04C0EE46FDA
:102DFC00000EE56FC4EC15F0120000EE60F0540EFE
:102E0C00EE6AE806FDE100EE54F0090EEE6AE80603
:102E1C00FDE1000EF86E0001D3EF13F0880ED56EB5
:102E2C00000ED76E000ED66E1200939493868A9481
:022E3C00120082
:020000040020DA
:08000000FFFFFFFFFFFFFFFF00
:020000040030CA
:0E00000000285F3CFFD381FF0FC00FE00F40D0
:00000001FF
