:0400000020EF17F0E6
:10080000002044697374616E63696100256620632A
:0B0810006D00696E66006E616E0000F6
:10081C00000E0001816F49C084F04AC085F04BC0C6
:10082C0086F04CC087F087BF20EF04F01EEF04F079
:10083C0034EF04F0010E816F84C001F085C002F02A
:10084C0086C003F087C004F0DCEC16F001C084F025
:10085C0002C085F003C086F004C087F0000E0001D2
:10086C00836F000E826FADC071F0AEC072F081511B
:10087C00D8B443EF04F045EF04F059EF04F0815184
:10088C00D8A44BEF04F04DEF04F053EF04F0000E3E
:10089C00676F2B0E666F57EF04F0000E676F2D0E0F
:1008AC00666F66C081F084C001F085C002F086C01E
:1008BC0003F087C004F054EC13F001040210D8A428
:1008CC006AEF04F06CEF04F09FEF04F0000181512B
:1008DC00D8B473EF04F075EF04F07EEF04F081C030
:1008EC0000F17107D8A07207000E836F010E826FA2
:1008FC00000E8225016E010E8321026E120E036E14
:10090C00080E046EBCEC16F00001FD0E7127FF0EF4
:10091C00722347C014F048C015F0000E166E010E7D
:10092C00176E71C018F072C019F074EC15F01DEF51
:10093C0009F084C001F085C002F086C003F087C0C6
:10094C0004F054EC13F001500210D8A4B0EF04F0F2
:10095C00B2EF04F0E5EF04F000018151D8B4B9EF27
:10096C0004F0BBEF04F0C4EF04F081C000F1710798
:10097C00D8A07207000E836F010E826F000E8225C5
:10098C00016E010E8321026E160E036E080E046EAC
:10099C00BCEC16F00001FD0E7127FF0E722347C050
:1009AC0014F048C015F0000E166E010E176E71C0D3
:1009BC0018F072C019F074EC15F01DEF09F0000E70
:1009CC000001886F000E896F800E8A6F3F0E8B6F4F
:1009DC00000E706F000E6F6F84C001F085C002F0C6
:1009EC0086C003F087C004F0000E056E000E066E84
:1009FC00000E076E000E086E8FEC14F0D8B009EFE5
:100A0C0005F00BEF05F0EAEF05F018EF05F073C0F9
:100A1C0088F074C089F075C08AF076C08BF0000144
:100A2C006F4B702B88C001F089C002F08AC003F0B4
:100A3C008BC004F0000E056E000E066E200E076EC5
:100A4C00410E086E7EEC0BF001C073F002C074F026
:100A5C0003C075F004C076F000017351845D016E23
:100A6C0074518559026E75518659036E76518759AA
:100A7C00046EB1EC15F004BE4FEF05F004500310FA
:100A8C00021009E1020E015CD8A04FEF05F051EF06
:100A9C0005F00DEF05F073C01AF074C01BF075C0B3
:100AAC001CF076C01DF084C01EF085C01FF086C0FF
:100ABC0020F087C021F0D2EC12F0D8A068EF05F03E
:100ACC006AEF05F00DEF05F000018851845D016EB1
:100ADC0089518559026E8A518659036E8B518759FB
:100AEC00046EB1EC15F004BE89EF05F00450031050
:100AFC00021007E1020E015CD8B087EF05F089EF18
:100B0C0005F0D1EF05F088C084F089C085F08AC06B
:100B1C0086F08BC087F0EAEF05F088C01AF089C028
:100B2C001BF08AC01CF08BC01DF0000E1E6E000E58
:100B3C001F6E200E206E410E216E93EC0DF01AC02C
:100B4C0088F01BC089F01CC08AF01DC08BF000011E
:100B5C006F07D8A070078851845D016E8951855943
:100B6C00026E8A518659036E8B518759046EB1EC13
:100B7C0015F004BECFEF05F004500310021007E18E
:100B8C00020E015CD8B0CDEF05F0CFEF05F0D1EF40
:100B9C0005F089EF05F084C01AF085C01BF086C003
:100BAC001CF087C01DF088C01EF089C01FF08AC0E1
:100BBC0020F08BC021F0D2EC12F0D8A0E8EF05F0B9
:100BCC00EAEF05F093EF05F04DC069F069C06AF0EB
:100BDC000001B0BFF4EF05F0F6EF05F0FCEF05F007
:100BEC00AFC062F0B0C063F000EF06F0000E636FB0
:100BFC00060E626F62C06DF063C06EF06D4B6E2BB3
:100C0C00660E6A19D8A40DEF06F00FEF06F02FEF61
:100C1C0006F070BF16EF06F014EF06F022EF06F0A8
:100C2C00000E886F000E896F800E8A6F3F0E8B6FDF
:100C3C00000E706F000E6F6F670E6919D8B429EF34
:100C4C0006F02BEF06F02FEF06F06F516D27705169
:100C5C006E23000E786F000E776F84C079F085C01C
:100C6C007AF086C07BF087C07CF088C073F089C0B6
:100C7C0074F08AC075F08BC076F0C0EF06F079C0C6
:100C8C001AF07AC01BF07BC01CF07CC01DF088C031
:100C9C001EF089C01FF08AC020F08BC021F093ECAD
:100CAC000DF01AC033F01BC034F01CC035F01DC061
:100CBC0036F06CEC10F033C07DF034C07EF035C0F3
:100CCC007FF036C080F07DC001F07EC002F07FC0A6
:100CDC0003F080C004F04FEC12F001C06BF002C0C6
:100CEC006CF079C01AF07AC01BF07BC01CF07CC091
:100CFC001DF07DC005F07EC006F07FC007F080C0FF
:100D0C0008F088C001F089C002F08AC003F08BC0E3
:100D1C0004F07EEC0BF001C01EF002C01FF003C00B
:100D2C0020F004C021F056EC16F01AC079F01BC06C
:100D3C007AF01CC07BF01DC07CF088C01AF089C012
:100D4C001BF08AC01CF08BC01DF0000E1E6E000E36
:100D5C001F6E200E206E410E216E93EC0DF01AC00A
:100D6C0088F01BC089F01CC08AF01DC08BF00001FC
:100D7C00774B782B6D51775D7851800A4E6E6E51A2
:100D8C00800A4E58D8A0CDEF06F0CFEF06F045EF15
:100D9C0006F088C001F089C002F08AC003F08BC055
:100DAC0004F0000E056E000E066EA00E076E400ECF
:100DBC00086E7EEC0BF001C07DF002C07EF003C02B
:100DCC007FF004C080F079C01AF07AC01BF07BC0B1
:100DDC001CF07CC01DF07DC01EF07EC01FF07FC0DB
:100DEC0020F080C021F0D2EC12F0D8B000EF07F068
:100DFC0002EF07F00DEF07F0000E00017D6F000E03
:100E0C007E6F000E7F6F000E806F36EF07F079C09B
:100E1C0001F07AC002F07BC003F07CC004F07DC00E
:100E2C0005F07EC006F07FC007F080C008F08FECA4
:100E3C0014F0D8A024EF07F026EF07F036EF07F0F8
:100E4C0000016BB12CEF07F02EEF07F036EF07F037
:100E5C00000E7D6F000E7E6F000E7F6F000E806F98
:100E6C0084C001F085C002F086C003F087C004F096
:100E7C007DC005F07EC006F07FC007F080C008F092
:100E8C001EEC09F001C079F002C07AF003C07BF0CF
:100E9C0004C07CF079C01AF07AC01BF07BC01CF047
:100EAC007CC01DF0000E056E000E066E200E076E47
:100EBC00410E086E73C001F074C002F075C003F0EF
:100ECC0076C004F07EEC0BF001C01EF002C01FF0E7
:100EDC0003C020F004C021F0D2EC12F0D8A079EFBE
:100EEC0007F07BEF07F0A4EF07F000016F4B702BBE
:100EFC0073C001F074C002F075C003F076C004F04A
:100F0C00000E056E000E066E200E076E410E086E6A
:100F1C007EEC0BF001C073F002C074F003C075F0EE
:100F2C0004C076F0660E00016A19D8A4A0EF07F091
:100F3C00A2EF07F0A4EF07F06D4B6E2B73C088F097
:100F4C0074C089F075C08AF076C08BF06FC060F009
:100F5C0070C061F0000E0001686F000E656F000E2E
:100F6C00646F000E786F000E776FA2EF08F079C0F7
:100F7C001AF07AC01BF07BC01CF07CC01DF088C03E
:100F8C001EF089C01FF08AC020F08BC021F093ECBA
:100F9C000DF01AC033F01BC034F01CC035F01DC06E
:100FAC0036F06CEC10F033C07DF034C07EF035C000
:100FBC007FF036C080F07DC001F07EC002F07FC0B3
:100FCC0003F080C004F04FEC12F002BEF9EF07F012
:100FDC00025007E10A0E015CD8B0F7EF07F0F9EF09
:100FEC0007F009EF08F07DC001F07EC002F07FC071
:100FFC0003F080C004F04FEC12F001C06BF002C0A3
:10100C006CF00EEF08F0000E00016C6F090E6B6FA8
:10101C0000016851D8A415EF08F017EF08F03FEF66
:10102C0008F061BF1EEF08F01CEF08F03FEF08F06E
:10103C00000E8225D96E010E8321DA6E2E0EDF6E24
:10104C00824B832B7107D8A07207010E686F3FEF9C
:10105C0008F0000E8225D96E010E8321DA6E300E57
:10106C00DF6E824B832B7107D8A072076407D8A060
:10107C00650764516511D8A446EF08F048EF08F0F5
:10108C002FEF08F0000E8225D96E010E8321DA6E47
:10109C006B51300FDF6E824B832B7107D8A0720718
:1010AC0079C01AF07AC01BF07BC01CF07CC01DF01C
:1010BC007DC005F07EC006F07FC007F080C008F050
:1010CC0088C001F089C002F08AC003F08BC004F024
:1010DC007EEC0BF001C01EF002C01FF003C020F02C
:1010EC0004C021F056EC16F01AC079F01BC07AF04F
:1010FC001CC07BF01DC07CF088C01AF089C01BF0AE
:10110C008AC01CF08BC01DF0000E1E6E000E1F6EF0
:10111C00200E206E410E216E93EC0DF01AC088F05B
:10112C001BC089F01CC08AF01DC08BF00001600749
:10113C00D8A06107774B782B6D51775D7851800A79
:10114C004E6E6E51800A4E58D8B0AFEF08F0B1EF2A
:10115C0008F0BFEF08F083BFBDEF08F0835109E141
:10116C004B0E825DD8A0BDEF08F0BFEF08F0BDEFCD
:10117C0007F0000E786F4F0E776F000E7725D96E43
:10118C00010E7821DA6E000EDF6E000E4E6E010E2F
:10119C004F6E82514E5E83514F5A77514E24016EE1
:1011AC0078514F20026E000E036E010E046E82C049
:1011BC0005F083C006F0E4EC15F000018251775D78
:1011CC00826F83517859836F8151D8A4F0EF08F066
:1011DC00F3EF08F0010EF4EF08F0000E776F786B68
:1011EC008151D8B4FCEF08F0FEEF08F009EF09F0DC
:1011FC008207D8A08307000E8225D96E010E8321A9
:10120C00DA6E81C0DFFF7751715F7851725B47C036
:10121C0014F048C015F0000E8225166E010E8321C5
:10122C00176E71C018F072C019F074EC15F0120042
:10123C000450800B0D6E045004240F6E03AE29EF86
:10124C0009F02BEF09F02CEF09F00F800F50D8B4F8
:10125C0032EF09F034EF09F049EF09F00F28D8A468
:10126C003AEF09F03CEF09F044EF09F0000E016E83
:10127C00000E026E000E036E000E046E038E000E46
:10128C00046E51EF09F0000E016E000E026E000E9E
:10129C00036E000E046E0850800B0E6E0D500E186F
:1012AC00D8B45BEF09F05DEF09F05EEF09F00D8C3F
:1012BC00085008240E6E07AE66EF09F068EF09F0CF
:1012CC0069EF09F00E800E50D8B46FEF09F071EF92
:1012DC0009F086EF09F00E28D8A477EF09F079EF22
:1012EC0009F081EF09F0000E056E000E066E000E7F
:1012FC00076E000E086E078E000E086E8EEF09F05A
:10130C00000E056E000E066E000E076E000E086EC7
:10131C000F500E5CD8B095EF09F097EF09F0BEEFC7
:10132C0009F00DAC9CEF09F09EEF09F0A0EF09F06D
:10133C00800E0D1A0FC010F00EC00FF010C00EF082
:10134C0001C010F005C001F010C005F002C010F093
:10135C0006C002F010C006F003C010F007C003F086
:10136C0010C007F004C010F008C004F010C008F062
:10137C00000E106E0F500EC009F00A6A095E000EC6
:10138C000A5A0ABED3EF09F00A5009E11A0E095C99
:10139C00D8A0D3EF09F0D5EF09F00CEF0AF001500B
:1013AC00021003100410D8A4DEEF09F0E1EF09F0ED
:1013BC00010EE2EF09F0000E106E000E016E000E31
:1013CC00026E000E036E000E046E0EC00FF015EFD1
:1013DC000AF010A0F4EF09F0F6EF09F0FCEF09F0B9
:1013EC00D89010300109106EFEEF09F0D890103231
:1013FC0001A003EF0AF005EF0AF006EF0AF0108ED9
:10140C00043404320332023201320F2A0E500F5CC4
:10141C00D8A013EF0AF015EF0AF0EFEF09F00DBCAE
:10142C001AEF0AF01CEF0AF05CEF0AF00F50D8A488
:10143C0022EF0AF024EF0AF02EEF0AF0000E016EF4
:10144C00000E026E000E036E000E046E7DEF0BF0AC
:10145C000550012606500222075003220850042290
:10146C0004A03BEF0AF03DEF0AF0E9EF0AF010A000
:10147C0042EF0AF044EF0AF04AEF0AF0D89010302D
:10148C000109106E4CEF0AF0D890103201A051EF08
:10149C000AF053EF0AF054EF0AF0108E04340432C1
:1014AC000332023201320F2AE9EF0AF00550015CD7
:1014BC0006500258075003580450800A096E085011
:1014CC00800A0958D8B06DEF0AF06FEF0AF09AEF66
:1014DC000AF00150055C096E025006580A6E035062
:1014EC0007580B6E045008580C6EFF0E0924016E41
:1014FC00FF0E0A20026EFF0E0B20036EFF0E0C2057
:10150C00046E800E0D1A106C1050D8A490EF0AF0D7
:10151C0092EF0AF0A2EF0AF0010E0126000E022251
:10152C0003220422A2EF0AF00550015E0650025A73
:10153C000750035A0850045A0150021003100410AB
:10154C00D8A4ABEF0AF0ADEF0AF0E2EF0AF01050BE
:10155C00D8A4B3EF0AF0B5EF0AF0E2EF0AF0000EF0
:10156C00016E000E026E000E036E000E046E7DEF17
:10157C000BF0D890013602360336043610AEC9EFA4
:10158C000AF0CBEF0AF0CCEF0AF0018010A0D1EFFB
:10159C000AF0D3EF0AF0D7EF0AF0D8801036D9EF63
:1015AC000AF0D89010360F50D8B4DFEF0AF0E1EF04
:1015BC000AF0E2EF0AF00F0603AEE7EF0AF0E9EFEC
:1015CC000AF0BFEF0AF0000E0E6E10AEF0EF0AF04C
:1015DC00F2EF0AF00AEF0BF010C009F07F0E0916BB
:1015EC00D8B4FBEF0AF0FDEF0AF001EF0BF0010E9F
:1015FC000E6E0AEF0BF001A006EF0BF008EF0BF0EC
:10160C000AEF0BF0FDEF0AF00E50D8B410EF0BF010
:10161C0012EF0BF03DEF0BF0010E0126000E022233
:10162C000322042204A01DEF0BF01FEF0BF03DEF83
:10163C000BF001C009F002C00AF003C00BF004C0AB
:10164C000CF00C340C320B320A32093209C001F0A6
:10165C000AC002F00BC003F00CC004F00F28D8B481
:10166C003AEF0BF03CEF0BF03DEF0BF00F2A0F288D
:10167C00D8B443EF0BF045EF0BF04DEF0BF00F50E0
:10168C00D8A44BEF0BF04DEF0BF05FEF0BF0000E0F
:10169C00016E000E026E000E036E000E046E0F50F3
:1016AC00D8A45BEF0BF05DEF0BF05FEF0BF0000ECF
:1016BC000D6E0FA064EF0BF066EF0BF069EF0BF003
:1016CC00038E6AEF0BF0039ED8900F30046E0DAEB4
:1016DC0072EF0BF074EF0BF075EF0BF0048E01C092
:1016EC0001F002C002F003C003F004C004F01200C9
:1016FC000450800B0D6E04500424136E03AE89EF5E
:10170C000BF08BEF0BF08CEF0BF013801350D8B465
:10171C0092EF0BF094EF0BF0A7EF0BF01328D8A47B
:10172C009AEF0BF09CEF0BF0A4EF0BF0000E016E98
:10173C00000E026E000E036E000E046E038EAFEFF1
:10174C000BF0000E016E000E026E000E036E000E0A
:10175C00046E0850800B0D1A08500824126E07AE48
:10176C00BAEF0BF0BCEF0BF0BDEF0BF01280125088
:10177C00D8B4C3EF0BF0C5EF0BF0D8EF0BF0122879
:10178C00D8A4CBEF0BF0CDEF0BF0D5EF0BF0000E98
:10179C00056E000E066E000E076E000E086E078EAC
:1017AC00E0EF0BF0000E056E000E066E000E076EDD
:1017BC00000E086E1250D8B4E6EF0BF0E8EF0BF009
:1017CC00F0EF0BF01350D8A4EEEF0BF0F0EF0BF0A2
:1017DC00FAEF0BF0000E016E000E026E000E036E9F
:1017EC00000E046E92EF0DF007500102F3CF18F0CB
:1017FC00F4CF19F018500E6E0F6A106A116A195056
:10180C00146E156A166A176A06500202F3CF18F0A6
:10181C00F4CF19F018500E26000E0F2210221122B0
:10182C0019501426000E15221622172205500302F9
:10183C00F3CF18F0F4CF19F018500E26000E0F222B
:10184C001022112219501426000E152216221722CE
:10185C0010C011F00FC010F00EC00FF00E6A055042
:10186C000202F3CF18F0F4CF19F018500E261950CD
:10187C000F22000E1022000E112206500102F3CF8F
:10188C0018F0F4CF19F018500E2619500F22000E34
:10189C001022000E112210C011F00FC010F00EC05B
:1018AC000FF00E6A05500102F3CF18F0F4CF19F0C7
:1018BC0018500E2619500F22000E1022000E112265
:1018CC0007500202F3CF18F0F4CF19F01850142679
:1018DC0019501522000E1622000E17220650030274
:1018EC00F3CF18F0F4CF19F0185014261950152214
:1018FC00000E1622000E172207500302F3CF18F029
:10190C00F4CF19F01850096E19500A6E0B6A0C6A54
:10191C000BC00CF00AC00BF009C00AF0096A0950A0
:10192C0014260A5015220B5016220C5017220EC0EA
:10193C0009F00FC00AF010C00BF011C00CF0190E1A
:10194C00ADEF0CF0D8900C320B320A320932E82E83
:10195C00A8EF0CF0095014260A5015220B50162231
:10196C000C50172210C011F00FC010F00EC00FF069
:10197C000E6A125013C009F00A6A0926000E0A22D8
:10198C00820E0924186EFF0E0A20196EE3EF0CF07C
:10199C00D890143615361636173611AED8EF0CF023
:1019AC00DAEF0CF0DBEF0CF01480D8900E360F361B
:1019BC00103611361806D8A0190616AEE8EF0CF042
:1019CC00EAEF0CF0CEEF0CF0000E126E11AEF1EF50
:1019DC000CF0F3EF0CF017EF0DF0FF0E0E14096E78
:1019EC00FF0E0F140A6EFF0E10140B6E7F0E1114E7
:1019FC000C6E09500A100B100C10D8B408EF0DF037
:101A0C000AEF0DF00EEF0DF0010E126E17EF0DF048
:101A1C0014A013EF0DF015EF0DF017EF0DF00AEF0A
:101A2C000DF01250D8B41DEF0DF01FEF0DF043EF79
:101A3C000DF0010E1426000E15221622172217A0E7
:101A4C002AEF0DF02CEF0DF043EF0DF014C009F060
:101A5C0015C00AF016C00BF017C00CF00C340C3289
:101A6C000B320A32093209C014F00AC015F00BC04F
:101A7C0016F00CC017F0184A192A19BE4EEF0DF0CB
:101A8C00195008E11828D8A04EEF0DF050EF0DF0CA
:101A9C005AEF0DF0000E146E000E156E800E166EC1
:101AAC007F0E176E88EF0DF019BE67EF0DF0195011
:101ABC0006E11804D8B065EF0DF067EF0DF073EF89
:101ACC000DF0000E146E000E156E000E166E000E4C
:101ADC00176E000E0D6E88EF0DF018C013F0FF0E90
:101AEC001416FF0E15167F0E1616000E171613A0E1
:101AFC0082EF0DF084EF0DF085EF0DF0168ED8907F
:101B0C001330176E0D50171214C001F015C002F0EF
:101B1C0016C003F017C004F012001D50800B2A6E83
:101B2C001D501D24316E1CAE9EEF0DF0A0EF0DF07C
:101B3C00A1EF0DF031803150D8B4A7EF0DF0A9EF23
:101B4C000DF0BEEF0DF03128D8A4AFEF0DF0B1EFD2
:101B5C000DF0B9EF0DF0000E1A6E000E1B6E000E9C
:101B6C001C6E000E1D6E1C8E000E1D6EC6EF0DF051
:101B7C00000E1A6E000E1B6E000E1C6E000E1D6EFB
:101B8C002150800B2A1A21502124326E20AED1EF25
:101B9C000DF0D3EF0DF0D4EF0DF032803250D8B4FD
:101BAC00DAEF0DF0DCEF0DF0F1EF0DF03228D8A4E8
:101BBC00E2EF0DF0E4EF0DF0ECEF0DF0000E1E6E09
:101BCC00000E1F6E000E206E000E216E208E000E79
:101BDC00216EF9EF0DF0000E1E6E000E1F6E000E42
:101BEC00206E000E216E1E501F1020102110D8A444
:101BFC0002EF0EF004EF0EF01CEF0EF0000E1A6E5A
:101C0C00000E1B6E000E1C6E000E1D6E800E1C1244
:101C1C007F0E1D122A501D121AC01AF01BC01BF089
:101C2C001CC01CF01DC01DF05FEF0FF03150D8A48C
:101C3C0022EF0EF024EF0EF02EEF0EF0000E1A6EC7
:101C4C00000E1B6E000E1C6E000E1D6E5FEF0FF073
:101C5C00325031C022F0236A225E000E235A7F0ECE
:101C6C0022242B6E000E23202C6E1AC026F01BC0D3
:101C7C0027F01CC028F01DC029F0000E1A6E000EB3
:101C8C001B6E000E1C6E000E1D6E000E2D6E000ED7
:101C9C002E6E000E2F6E000E306E000E326E8FEF19
:101CAC000EF03250D8B45DEF0EF05FEF0EF076EF21
:101CBC000EF0D8902636273628362936D8901A3684
:101CCC001B361C361D3630AE6EEF0EF070EF0EF07C
:101CDC0071EF0EF01A80D8902D362E362F36303606
:101CEC001E50265C1F502758205028582150295828
:101CFC00D8A083EF0EF085EF0EF08EEF0EF0308C47
:101D0C001E50265E1F50275A2050285A2150295AFF
:101D1C00322A190E326495EF0EF097EF0EF057EF52
:101D2C000EF02650271028102910D8B4A0EF0EF072
:101D3C00A2EF0EF0BAEF0EF02D80BAEF0EF0D890A5
:101D4C001A361B361C361D3630AEAFEF0EF0B1EF27
:101D5C000EF0B2EF0EF01A80D8902D362E362F36AC
:101D6C0030362B06D8A02C061CAEBFEF0EF0C1EF00
:101D7C000EF0A5EF0EF0000E326E30AEC8EF0EF086
:101D8C00CAEF0EF0EEEF0EF0FF0E2D14226EFF0ECA
:101D9C002E14236EFF0E2F14246E7F0E3014256E1E
:101DAC002250231024102510D8B4DFEF0EF0E1EFF1
:101DBC000EF0E5EF0EF0010E326EEEEF0EF01AA003
:101DCC00EAEF0EF0ECEF0EF0EEEF0EF0E1EF0EF0AE
:101DDC003250D8B4F4EF0EF0F6EF0EF01AEF0FF01D
:101DEC00010E1A26000E1B221C221D221DA001EF23
:101DFC000FF003EF0FF01AEF0FF01AC022F01BC018
:101E0C0023F01CC024F01DC025F0253425322432CB
:101E1C002332223222C01AF023C01BF024C01CF043
:101E2C0025C01DF02B4A2C2A2CBE25EF0FF02C5070
:101E3C0008E12B28D8A025EF0FF027EF0FF032EF99
:101E4C000FF0000E2C6E2B68000E1A6E000E1B6E1F
:101E5C00000E1C6E000E1D6E2CBE3FEF0FF02C50B2
:101E6C0006E12B04D8B03DEF0FF03FEF0FF04DEF34
:101E7C000FF0000E2C6E000E2B6E000E1A6E000E64
:101E8C001B6E000E1C6E000E1D6E000E2A6E2BC0FB
:101E9C0031F031A054EF0FF056EF0FF059EF0FF077
:101EAC001C8E5AEF0FF01C9ED89031301D6E10EF27
:101EBC000EF0120052C0D9FF53C0DAFFDECFF6FF8E
:101ECC00DDCFF7FF0800F550250AD8A470EF0FF00E
:101EDC0072EF0FF057EF10F052C0D9FF53C0DAFF7A
:101EEC00DE2A000EDD22000E0001AE6F000EAD6F7B
:101EFC00ADC0B1F0AF69B06952C0D9FF53C0DAFFC1
:101F0C00DECF95F0DDCF96F095C0F6FF96C0F7FFCB
:101F1C000800F5CF94F09FEF0FF0954B962BB8EF90
:101F2C000FF06C0E946FB8EF0FF0000E946FB8EFCB
:101F3C000FF09451566E576A5750000AD8B4A9EF57
:101F4C000FF09BEF0FF056504C0AD8B493EF0FF0F4
:101F5C002A0AD8B497EF0FF00A0AD8B493EF0FF00F
:101F6C009BEF0FF095C0F6FF96C0F7FF0800F550F9
:101F7C00660AD8A4C4EF0FF0C6EF0FF04EEF10F0C6
:101F8C00FCEF0FF054C0D9FF55C0DAFFDFCF56F08D
:101F9C00040EDE26DFCF57F0000EDD2256C0D9FF2F
:101FAC0057C0DAFFDECF8CF0DECF8DF0DECF8EF0B7
:101FBC00DECF8FF011EF10F054C0D9FF55C0DAFF0F
:101FCC00DFCF56F0040EDE26DFCF57F0000EDD22F9
:101FDC0056C0D9FF57C0DAFFDECF8CF0DECF8DF0C4
:101FEC00DECF8EF0DECF8FF011EF10F09451566EE5
:101FFC00576A5750000AD8B406EF10F011EF10F0E2
:10200C0056504C0AD8B4E2EF0FF0200AD8B4C8EFFF
:10201C000FF011EF10F0010E9525566E000E962163
:10202C00576E52C0D9FF53C0DAFF56C0DEFF57C0FF
:10203C00DDFF38EF10F050C047F051C048F08CC0B5
:10204C0049F08DC04AF08EC04BF08FC04CF095C05B
:10205C00F6FF96C0F7FF0800F5CF4DF00EEC04F03C
:10206C006BEF10F095C0F6FF96C0F7FF0800F55027
:10207C00566E576A5750000AD8B447EF10F04EEF1F
:10208C0010F05650660AD8B421EF10F04EEF10F055
:10209C0052C0D9FF53C0DAFFDE2A000EDD226BEFEF
:1020AC0010F052C0D9FF53C0DAFFDECFF6FFDDCF00
:1020BC00F7FF0800F550046E056A50C006F051C0D9
:1020CC0007F0E4EC14F04EEF10F01200A5C043F052
:1020DC00A6C044F0A7C045F0A8C046F033C043F0FA
:1020EC0034C044F035C045F036C046F0810E376E32
:1020FC00FF0E386E43C039F044C03AF045C03BF097
:10210C0046C03CF0180E90EF10F0D8903C323B32A9
:10211C003A323932E82E8BEF10F039503724416EB9
:10212C00000E3820426E42BEA5EF10F0425009E17D
:10213C00170E415CD8A0A5EF10F0A7EF10F0B1EF8F
:10214C0010F033C033F034C034F035C035F036C045
:10215C0036F074EF11F042BEB6EF10F0B8EF10F09D
:10216C0028EF11F041C037F0FF0E386EFF0E396EBC
:10217C007F0E3A6E000E3B6E3766C7EF10F0CFEF56
:10218C0010F03B343B323A3239323832372EC2EF10
:10219C0010F038C03DF039C03EF03AC03FF03BC0C3
:1021AC0040F03D504314376E3E504414386E3F504F
:1021BC004514396E405046143A6E37503810391069
:1021CC003A10D8A4ECEF10F0EEEF10F0F0EF10F0A6
:1021DC00A7EF10F043C037F044C038F045C039F0D9
:1021EC0046C03AF0200E00EF11F0D8903A32393256
:1021FC0038323732E82EFBEF10F0375038103910E8
:10220C003A10D8B40CEF11F00EEF11F016EF11F0EC
:10221C003D5043263E5044223F50452240504622DA
:10222C003D1C376E3E1C386E3F1C396E401C3A6E9E
:10223C003750431638504416395045163A50461606
:10224C006CEF11F043C037F044C038F045C039F0A2
:10225C0046C03AF0200E38EF11F0D8903A323932AD
:10226C0038323732E82E33EF11F03750381039103E
:10227C003A10D8A444EF11F046EF11F050EF11F0E2
:10228C00000E436E000E446E000E456E000E466E40
:10229C006CEF11F0D8904334376E4434386E4534BB
:1022AC00396E46343A6E3750381039103A10D8B46B
:1022BC0062EF11F064EF11F06CEF11F0000E436E51
:1022CC00000E446E800E456EBF0E466E43C033F05A
:1022DC0044C034F045C035F046C036F01200096EEB
:1022EC000950D8B47CEF11F07EEF11F0A0EF11F093
:1022FC0004BE85EF11F083EF11F0A0EF11F001C0D7
:10230C0005F002C006F003C007F004C008F0051E7B
:10231C00061E071E081E052A000E0622072208228A
:10232C0005C00BF006C00CF007C00DF008C00EF095
:10233C00A8EF11F001C00BF002C00CF003C00DF0BF
:10234C0004C00EF00150021003100410D8A4B1EF19
:10235C0011F0B3EF11F0BDEF11F0000E016E000E95
:10236C00026E000E036E000E046E4EEF12F0960E0F
:10237C000A6EC7EF11F00A2AD8900E320D320C32C9
:10238C000B32000E0B14056E000E0C14066E000EB4
:10239C000D14076EFE0E0E14086E05500610071075
:1023AC000810D8A4DCEF11F0DEEF11F0C1EF11F042
:1023BC00ECEF11F00A2A010E0B26000E0C220D2256
:1023CC000E22D8900E320D320C320B32000E0B1442
:1023DC00056E000E0C14066E000E0D14076EFF0E2B
:1023EC000E14086E0550061007100810D8A401EF43
:1023FC0012F003EF12F0E0EF11F00BEF12F00A06FF
:10240C00D8900B360C360D360E360DBE10EF12F082
:10241C0012EF12F01AEF12F0020E0A6018EF12F01F
:10242C001AEF12F005EF12F00AB01FEF12F021EFC5
:10243C0012F022EF12F00D9ED8900A320AC005F06D
:10244C00066A076A086A05C008F0076A066A056A20
:10245C0005500B1206500C1207500D1208500E129C
:10246C000950D8B43CEF12F03EEF12F046EF12F0E8
:10247C0004BE45EF12F043EF12F046EF12F00E8E51
:10248C000BC001F00CC002F00DC003F00EC004F044
:10249C001200033404340A6E0A50D8A458EF12F018
:1024AC005AEF12F064EF12F0000E016E000E026E85
:1024BC00000E036E000E046ED1EF12F001C005F099
:1024CC0002C006F003C007F004C008F0200E74EF41
:1024DC0012F0D8900832073206320532E82E6FEF30
:1024EC0012F00550096E038EFF0E0116FF0E021638
:1024FC00FF0E0316000E0416960E0A5E0ABE8BEF34
:10250C0012F089EF12F0A1EF12F00A50800A970F27
:10251C00D8B093EF12F095EF12F097EF12F05AEF4C
:10252C0012F0D89004320332023201320A3E97EF95
:10253C0012F0B9EF12F01F0E0A64A7EF12F0A9EF18
:10254C0012F0B1EF12F05AEF12F0D89001360236B9
:10255C00033604360A060A50D8A4B7EF12F0B9EFC6
:10256C0012F0ABEF12F00950D8B4BFEF12F0C1EF7C
:10257C0012F0C9EF12F0041E031E021E016C000EB5
:10258C0002220322042201C001F002C002F003C0A7
:10259C0003F004C004F01200000E1A14226E000E98
:1025AC001B14236E800E1C14246E7F0E1D14256EBE
:1025BC002250231024102510D8A4E7EF12F0E9EFD5
:1025CC0012F0F1EF12F0000E1A6E000E1B6E000EE0
:1025DC001C6E000E1D6E000E1E14226E000E1F14BB
:1025EC00236E800E2014246E7F0E2114256E225033
:1025FC00231024102510D8A406EF13F008EF13F0C5
:10260C0010EF13F0000E1E6E000E1F6E000E206EEB
:10261C00000E216E1DAE15EF13F017EF13F020EF27
:10262C0013F01A6C1B1ED8B01B2A1C1ED8B01C2A07
:10263C00800E1D5621AE25EF13F027EF13F030EF6F
:10264C0013F01E6C1F1ED8B01F2A201ED8B0202AD3
:10265C00800E2156000E1A1A000E1B1A000E1C1AA0
:10266C00800E1D1A000E1E1A000E1F1A000E201AC4
:10267C00800E211A1E501A5C1F501B5820501C58DB
:10268C0021501D58D8B04DEF13F04FEF13F052EF0F
:10269C0013F0D89053EF13F0D8801200A9C00BF0B0
:1026AC00AAC00CF0ABC00DF0ACC00EF001C00BF02A
:1026BC0002C00CF003C00DF004C00EF00BC005F00E
:1026CC000CC006F00DC007F00EC008F0180E74EF29
:1026DC0013F0D8900832073206320532E82E6FEF2D
:1026EC0013F00550096E0A6A09500A10D8A481EF3C
:1026FC0013F083EF13F0A3EF13F0D8900B34056EA7
:10270C000C34066E0D34076E0E34086E0550061030
:10271C0007100810D8A495EF13F097EF13F09DEF66
:10272C0013F0000E026E020E016ED2EF13F0000ECB
:10273C00026E030E016ED2EF13F009280A10D8A412
:10274C00AAEF13F0ACEF13F0CEEF13F00BC005F0C3
:10275C000CC006F00DC007F00EC008F0090ED890A2
:10276C000536063607360836E82EB5EF13F0055059
:10277C00061007100810D8B4C6EF13F0C9EF13F009
:10278C00010ECAEF13F0000E016E026AD2EF13F0C5
:10279C00000E026E040E016E12008A84060EE82EE4
:1027AC00FED700D08A94000ED76E000ED66E81A68E
:1027BC00E2EF13F0E4EF13F0DDEF13F0000ED76E41
:1027CC00000ED66E81B6EDEF13F0EFEF13F0E8EFDD
:1027DC0013F0D6CF01F0D7CF02F0036A046A000ED3
:1027EC0075EC11F001C03BF002C03CF003C03DF0B1
:1027FC0004C03EF0960E056E430E066E0B0E076E71
:10280C003D0E086E3BC001F03CC002F03DC003F031
:10281C003EC004F07EEC0BF001C01AF002C01BF0BD
:10282C0003C01CF004C01DF0000E1E6E000E1F6EC7
:10283C00000E206E400E216E93EC0DF01AC037F096
:10284C001BC038F01CC039F01DC03AF037C033F053
:10285C0038C034F039C035F03AC036F012000CEC08
:10286C0017F031EC17F038EC17F02FEC15F0D3EC27
:10287C0013F033C0A1F034C0A2F035C0A3F036C0C1
:10288C00A4F0010E0001976F080E986FF8EC16F08B
:10289C00C20E9BEC16F00C0E0001976F080E986F91
:1028AC00A1C099F0A2C09AF0A3C09BF0A4C09CF068
:1028BC00F8EC16F0A1C01AF0A2C01BF0A3C01CF0DB
:1028CC00A4C01DF0000E1E6E000E1F6E200E206E9A
:1028DC00410E216ED2EC12F0D8B077EF14F079EFF4
:1028EC0014F07DEF14F08A908A827FEF14F08A80C6
:1028FC008A92030E0001A06F080E9F6F770EE82ED0
:10290C00FED79F2FFCD7A02FFAD73DEF14F000EF86
:10291C0000F0000E0114096E000E02140A6E800EF7
:10292C0003140B6E7F0E04140C6E09500A100B105E
:10293C000C10D8A4A4EF14F0A6EF14F0AEEF14F022
:10294C00000E016E000E026E000E036E000E046E81
:10295C00000E0514096E000E06140A6E800E071484
:10296C000B6E7F0E08140C6E09500A100B100C1015
:10297C00D8A4C3EF14F0C5EF14F0CDEF14F0000E93
:10298C00056E000E066E000E076E000E086E0550EA
:10299C0001180FE1065002180CE10750031809E169
:1029AC0008500418D8B4DDEF14F0DFEF14F0E2EFA8
:1029BC0014F0D890E3EF14F0D880120006500710F2
:1029CC00D8B4EBEF14F0EDEF14F0F6EF14F0065072
:1029DC000710D8A4F4EF14F0F6EF14F0FBEF14F09A
:1029EC00045033EC16F02EEF15F020EE09F00650E3
:1029FC00D9260750DA22DE50DE10D8B408EF15F0D5
:102A0C000AEF15F025EF15F020EE09F00650D92647
:102A1C000750DA2210EE03F00650E1260750E222AE
:102A2C00DE50E65CE650800A0C6EDE50800A0C58D4
:102A3C00D8B023EF15F025EF15F02EEF15F020EEA2
:102A4C0003F00650D9260750DA22DE2A000EDD22CA
:102A5C0012004E0E046EEB0EE82EFED7042EFCD7A1
:102A6C0000F0020E9BEC16F0030E046E980EE82E8E
:102A7C00FED7042EFCD7280E9BEC16F0030E046E2A
:102A8C00980EE82EFED7042EFCD72C0E9BEC16F0DD
:102A9C00030E046E980EE82EFED7042EFCD70C0EF7
:102AAC009BEC16F0030E046E980EE82EFED7042E47
:102ABC00FCD7060E9BEC16F0030E046E980EE82E57
:102ACC00FED7042EFCD7800E9BEC16F0030E046E82
:102ADC00980EE82EFED7042EFCD7120019BE79EF03
:102AEC0015F07BEF15F081EF15F018C01DF019C033
:102AFC001EF085EF15F0000E1E6E000E1D6E000E02
:102B0C001C6E000E1B6E97EF15F0000E056E200E5E
:102B1C00046E14C006F015C007F0E4EC14F01B4A68
:102B2C001C2A1D501B5C1C50800A1A6E1E50800AF9
:102B3C001A58D8A0A4EF15F0A6EF15F08BEF15F0EE
:102B4C0016C00DF017C00EF014C00FF015C010F029
:102B5C0079EC16F0120004BEC0EF15F0045003100F
:102B6C00021006E10104D8B0BEEF15F0C0EF15F06D
:102B7C00DBEF15F001C005F002C006F003C007F052
:102B8C0004C008F0051E061E071E081E052A000EAE
:102B9C0006220722082205C001F006C002F007C079
:102BAC0003F008C004F0E3EF15F001C001F002C01F
:102BBC0002F003C003F004C004F0120003C009F0DB
:102BCC0004C00AF001C007F002C008F0FEEF15F0D7
:102BDC0009C0D9FF0AC0DAFFDF500B6E094A0A2A76
:102BEC0007C0D9FF08C0DAFF0BC0DFFF074A082A6D
:102BFC000506D8A00606052806E10628D8A409EF84
:102C0C0016F00BEF16F0EEEF15F012005AC05EF056
:102C1C005BC05FF020EF16F058C050F059C051F077
:102C2C005E0E526E000E536E5CC054F05DC055F0DB
:102C3C0060EC0FF05EC0F6FF5FC0F7FF0800F550C8
:102C4C000009D8A42CEF16F02EEF16F012EF16F0A8
:102C5C00000E596E000E586E1200026E0250F00BF0
:102C6C00036E035005098C6E060EE82EFED700D0BD
:102C7C00035001098C6E030E016E980EE82EFED7E0
:102C8C00012EFCD70238F00B036E035005098C6E35
:102C9C00060EE82EFED700D0035001098C6E1200F0
:102CAC00000E1E1A000E1F1A000E201A800E211A7A
:102CBC001AC001F01BC002F01CC003F01DC004F0D0
:102CCC001EC005F01FC006F020C007F021C008F0A0
:102CDC001EEC09F001C01AF002C01BF003C01CF07E
:102CEC0004C01DF01200000E136E000E126E8AEF5F
:102CFC0016F011C004F0056A0FC006F010C007F002
:102D0C00E4EC14F0124A132A12500D24D96E13500D
:102D1C000E20DA6EDF50116E1150D8A498EF16F019
:102D2C009AEF16F07FEF16F01200026E0250F00BC5
:102D3C00036E035004098C6E060EE82EFED700D0ED
:102D4C0003C08CFF030E016E980EE82EFED7012EE9
:102D5C00FCD70238F00B036E035004098C6E060E80
:102D6C00E82EFED700D003C08CFF120003C005F084
:102D7C0004C006F001C007F002C008F005C0F6FF61
:102D8C0006C0F7FF054A062A07C0D9FF08C0DAFFBC
:102D9C00074A082A0800F5CFDFFFDF50D8A4D9EF87
:102DAC0016F0DBEF16F0C4EF16F012000150021013
:102DBC0003100410D8B4E5EF16F0E7EF16F0EFEFC0
:102DCC0016F0000E011A000E021A000E031A800EE5
:102DDC00041A01C001F002C002F003C003F004C0E9
:102DEC0004F01200990E00019D6F000E9E6F000EF4
:102DFC00586E000E596E97C05AF098C05BF09D0E3D
:102E0C005C6E000E5D6E0CEC16F012000F0EC16EB7
:102E1C00720ED36E880ED56E000ED76E000ED66E67
:102E2C00939093928A908A92000E956E000E0F01E9
:102E3C005E6F120001EE00F0500EEE6AE806FDE146
:102E4C0000EEA5F00D0EEE6AE806FDE1000EF86E40
:102E5C00000135EF14F0880ED56E000ED76E000E03
:0C2E6C00D66E1200939493868A94120094
:020000040020DA
:08000000FFFFFFFFFFFFFFFF00
:020000040030CA
:0E00000000285F3CFFD381FF0FC00FE00F40D0
:00000001FF
