:040000005CEF09F0B8
:10080000002044697374616E63696100256420632C
:030810006D000078
:1008140021C037F022C038F023C039F024C03AF0A8
:1008240025C03BF026C03CF027C03DF028C03EF078
:100834003EBE1FEF04F022EF04F0010E23EF04F09C
:10084400000E416E4150D8B42AEF04F02CEF04F0AE
:100854003CEF04F03E1E3D1E3C1E3B1E3A1E391E5C
:10086400381E376C000E382239223A223B223C22B1
:100874003D223E22000163BF4AEF04F0635106E1CA
:100884006205D8B048EF04F04AEF04F050EF04F0EA
:10089400000E346E010E336E54EF04F062C033F078
:1008A40063C034F060C035F061C036F04150D8B454
:1008B4005EEF04F060EF04F077EF04F03506D8A0A3
:1008C40036064150D8A469EF04F06BEF04F071EFE1
:1008D40004F0000E326E2B0E316E75EF04F0000E34
:1008E400326E2D0E316E31C041F0000E406E1F0E7F
:1008F4003F6E000E846FFBEF04F03F06D8A0400665
:10090400650E3F24D96E000E4020DA6E37C001F028
:1009140038C002F039C003F03AC004F03BC005F01F
:100924003CC006F03DC007F03EC008F00A0E096E58
:10093400000E0A6E000E0B6E000E0C6E000E0D6E95
:10094400000E0E6E000E0F6E000E106E0CEC06F014
:1009540001C029F002C02AF003C02BF004C02CF01F
:1009640005C02DF006C02EF007C02FF008C030F0EF
:1009740029C013F02AC014F012EC09F01350300F00
:10098400DF6E3306D8A034063506D8A0360637C045
:1009940001F038C002F039C003F03AC004F03BC0A3
:1009A40005F03CC006F03DC007F03EC008F00A0E5A
:1009B400096E000E0A6E000E0B6E000E0C6E000E19
:1009C4000D6E000E0E6E000E0F6E000E106E48ECD3
:1009D40005F001C037F002C038F003C039F004C09C
:1009E4003AF005C03BF006C03CF007C03DF008C03B
:1009F4003EF040BE06EF05F0405008E13F04D8A0A9
:100A040006EF05F008EF05F024EF05F03750381035
:100A140039103A103B103C103D103E10D8A415EF8D
:100A240005F017EF05F07FEF04F034BE24EF05F076
:100A3400345006E13304D8B022EF05F024EF05F07A
:100A44007FEF04F04150D8B42AEF05F02CEF05F005
:100A540037EF05F03F06D8A04006650E3F24D96E57
:100A6400000E4020DA6E41C0DFFF1FC014F020C02A
:100A740015F0650E3F24166E000E4020176E35C02B
:100A840018F036C019F048EC08F01200000E126E8F
:100A940010BE51EF05F04FEF05F063EF05F0101EA7
:100AA4000F1E0E1E0D1E0C1E0B1E0A1E096C000EC0
:100AB4000A220B220C220D220E220F221022010EDA
:100AC400126E08BE6AEF05F068EF05F07CEF05F0E2
:100AD400081E071E061E051E041E031E021E016CB0
:100AE400000E0222032204220522062207220822E3
:100AF400010E121A20EE13F0070EDE6AE806FDE27C
:100B040009500A100B100C100D100E100F101010BD
:100B1400D8B48FEF05F091EF05F0E3EF05F0010E87
:100B2400116E9FEF05F0D89009360A360B360C3655
:100B34000D360E360F361036112A10AEA4EF05F01E
:100B4400A6EF05F095EF05F0D89013361436153658
:100B540016361736183619361A360950015C0A50FB
:100B640002580B5003580C5004580D5005580E50A1
:100B740006580F50075810500858D8A0C4EF05F075
:100B8400C6EF05F0D7EF05F00950015E0A50025A8E
:100B94000B50035A0C50045A0D50055A0E50065A65
:100BA4000F50075A1050085A1380D89010320F3241
:100BB4000E320D320C320B320A320932112EA6EFEC
:100BC40005F01250D8B4E9EF05F0EBEF05F0FBEFB8
:100BD40005F01A1E191E181E171E161E151E141EA9
:100BE400136C000E14221522162217221822192221
:100BF4001A2213C001F014C002F015C003F016C08D
:100C040004F017C005F018C006F019C007F01AC0A8
:100C140008F01200000E126E08BE15EF06F013EF76
:100C240006F027EF06F0081E071E061E051E041E0A
:100C3400031E021E016C000E02220322042205225E
:100C4400062207220822010E126E10BE2EEF06F0B5
:100C54002CEF06F03EEF06F0101E0F1E0E1E0D1EAA
:100C64000C1E0B1E0A1E096C000E0A220B220C22FB
:100C74000D220E220F22102209500A100B100C1004
:100C84000D100E100F101010D8B44BEF06F04DEFEE
:100C940006F095EF06F0010E116E5BEF06F0D890AA
:100CA40009360A360B360C360D360E360F3610362C
:100CB400112A10AE60EF06F062EF06F051EF06F075
:100CC4000950015C0A5002580B5003580C50045848
:100CD4000D5005580E5006580F500758105008581C
:100CE400D8A077EF06F079EF06F089EF06F0095007
:100CF400015E0A50025A0B50035A0C50045A0D500C
:100D0400055A0E50065A0F50075A1050085AD890D8
:100D140010320F320E320D320C320B320A320932DB
:100D2400112E62EF06F01250D8B49BEF06F09DEF3F
:100D340006F0ADEF06F0081E071E061E051E041E73
:100D4400031E021E016C000E02220322042205224D
:100D540006220722082201C001F002C002F003C0EB
:100D640003F004C004F005C005F006C006F007C097
:100D740007F008C008F0120044C0D9FF45C0DAFFEC
:100D8400DECFF6FFDDCFF7FF0800F550250AD8A423
:100D9400CEEF06F0D0EF06F050EF07F044C0D9FFD5
:100DA40045C0DAFFDE2A000EDD22000E0001616F6D
:100DB400000E606F60C064F06269636944C0D9FF6B
:100DC40045C0DAFFDECF52F0DDCF53F052C0F6FF5C
:100DD40053C0F7FF0800F550640AD8B4F4EF06F0E6
:100DE400F6EF06F004EF07F052C0F6FF53C0F7FF2A
:100DF4000800F550690AD8A402EF07F004EF07F0E1
:100E040047EF07F046C0D9FF47C0DAFFDFCF48F00D
:100E1400020EDE26DFCF49F0000EDD2248C0D9FFE6
:100E240049C0DAFFDECF4AF0DDCF4BF0000E4BBEF7
:100E3400FF0E4C6E4D6E4E6E4F6E506E516E010E27
:100E44005224486E000E5320496E44C0D9FF45C059
:100E5400DAFF48C0DEFF49C0DDFF42C01FF043C0D7
:100E640020F04AC021F04BC022F04CC023F04DC00A
:100E740024F04EC025F04FC026F050C027F051C0DA
:100E840028F00AEC04F064EF07F044C0D9FF45C031
:100E9400DAFFDE2A000EDD2264EF07F044C0D9FF3A
:100EA40045C0DAFFDECFF6FFDDCFF7FF0800F550CF
:100EB400046E056A42C006F043C007F0B8EC07F0C0
:100EC40047EF07F0120003EC08F0020E0001886FF0
:100ED400040E876FBA0EE82EFED7872FFCD7882F13
:100EE400FAD700F032EC09F069EC09F075EC09F07E
:100EF40070EC09F001C089F002C08AF0010E5C6E4A
:100F0400080E5D6E48EC09F0C20EF1EC08F00C0E10
:100F14005C6E080E5D6E89C05EF08AC05FF048ECBE
:100F240009F000018ABFA2EF07F08A5107E10A0E17
:100F3400895DD8B0A0EF07F0A2EF07F0A6EF07F0A5
:100F44008A908A82A8EF07F08A808A92030E0001B1
:100F5400886F080E876F770EE82EFED7872FFCD791
:100F6400882FFAD77AEF07F000EF00F00650071049
:100F7400D8B4BFEF07F0C1EF07F0CAEF07F006508F
:100F84000710D8A4C8EF07F0CAEF07F0CFEF07F0B7
:100F94000450ACEC08F002EF08F020EE09F0065023
:100FA400D9260750DA22DE50DE10D8B4DCEF07F081
:100FB400DEEF07F0F9EF07F020EE09F00650D9262E
:100FC4000750DA2210EE03F00650E1260750E22221
:100FD400DE50E65CE650800A0C6EDE50800A0C5847
:100FE400D8B0F7EF07F0F9EF07F002EF08F020EEC2
:100FF40003F00650D9260750DA22DE2A000EDD223D
:1010040012004E0E046EEB0EE82EFED7042EFCD713
:1010140000F0020EF1EC08F0030E046E980EE82EB8
:10102400FED7042EFCD7280EF1EC08F0030E046E54
:10103400980EE82EFED7042EFCD72C0EF1EC08F007
:10104400030E046E980EE82EFED7042EFCD70C0E69
:10105400F1EC08F0030E046E980EE82EFED7042E71
:10106400FCD7060EF1EC08F0030E046E980EE82E81
:10107400FED7042EFCD7800EF1EC08F0030E046EAC
:10108400980EE82EFED7042EFCD7120019BE4DEFA1
:1010940008F04FEF08F055EF08F018C01DF019C024
:1010A4001EF059EF08F0000E1E6E000E1D6E000EAD
:1010B4001C6E000E1B6E6BEF08F0000E056E200E0A
:1010C400046E14C006F015C007F0B8EC07F01B4A14
:1010D4001C2A1D501B5C1C50800A1A6E1E50800A6C
:1010E4001A58D8A078EF08F07AEF08F05FEF08F00C
:1010F40016C00DF017C00EF014C00FF015C010F09C
:10110400CFEC08F0120056C05AF057C05BF099EFCC
:1011140008F054C042F055C043F05A0E446E000E1D
:10112400456E58C046F059C047F0BEEC06F05AC0B0
:10113400F6FF5BC0F7FF0800F5500009D8A4A5EF3F
:1011440008F0A7EF08F08BEF08F0000E556E000EC4
:10115400546E1200026E0250F00B036E0350050928
:101164008C6E060EE82EFED700D0035001098C6E5B
:10117400030E016E980EE82EFED7012EFCD702381E
:10118400F00B036E035005098C6E060EE82EFED795
:1011940000D0035001098C6E1200000E136E000E75
:1011A400126EE0EF08F011C004F0056A0FC006F0FB
:1011B40010C007F0B8EC07F0124A132A12500D249D
:1011C400D96E13500E20DA6EDF50116E1150D8A470
:1011D400EEEF08F0F0EF08F0D5EF08F01200026E21
:1011E4000250F00B036E035004098C6E060EE82EB9
:1011F400FED700D003C08CFF030E016E980EE82EBC
:10120400FED7012EFCD70238F00B036E03500409FD
:101214008C6E060EE82EFED700D003C08CFF1200A1
:1012240014BE1FEF09F0145006E11304D8B01DEFEB
:1012340009F01FEF09F02DEF09F013C015F014C0E9
:1012440016F0151E161E154A162A15C013F016C0E0
:1012540014F031EF09F013C013F014C014F01200AD
:101264000F0EC16E720ED36E880ED56E000ED76E41
:10127400000ED66E939093928A908A92000E956E89
:10128400000E0F015E6F000E5C6F12005E0E000117
:10129400856F000E866F000E546E000E556E5CC096
:1012A40056F05DC057F0850E586E000E596E85ECF1
:1012B40008F0120000EE60F0250EEE6AE806FDE18B
:1012C400000EF86E080EF76E000165EF07F0880E49
:1012D400D56E000ED76E000ED66E1200000E026E92
:0E12E400090E016E1200939493868A941200F4
:020000040020DA
:08000000FFFFFFFFFFFFFFFF00
:020000040030CA
:0E00000000285F3CFFD381FF0FC00FE00F40D0
:00000001FF
